:10000300E4F594FF1200337F011200ADE4FF120008
:1000130073E4FF1200917F011200827F0112009F9F
:100023001200C5120063EF70FA1200E88F9080F09F
:10003300EF25E025E0543CFFE5D354C34FF5D3222D
:0C00AD00EF5403FFE5D354FC4FF5D322C1
:0F007300EFC4333354C0FFE5D2543F4FF5D222D0
:0E009100EFC4335420FFE5D254DF4FF5D222E6
:10004300EF25E025E0541CFFE5D254E34FF5D2221F
:10005300EF25E025E0541CFFE5D254E34FF5D2220F
:0C00B900EF5403FFE5D254FC4FF5D222B7
:0F008200EFC4333354C0FFE5D1543F4FF5D122C3
:0E009F00EFC4335420FFE5D154DF4FF5D122DA
:0B00C5007F0143D380AE071FEE70FAEE
:0100D000220D
:0300E800AFD5226F
:0300EB00AFD4226D
:10006300E5D35440D3940040047F0180027F0022F3
:0B00DD00E5D15418131313541FFF2229
:030000000200D12A
:0C00D100787FE4F6D8FD7581070200037B
:00000001FF
