:0F08E800010900010800010D00010B00010C00C7
:100466007593EE75BC40D2CEC28075A601D2BA4352
:10047600BC01D2EAD2B9D2AF7F011207EEE50C6019
:10048600FCE4F50CE50A70FCE508640175F020A4AF
:0B049600240EF9E4FAFB7D1E120A2F71
:1004A1009000027414F0D2E8900002E0FF14F0EF23
:0404B10070F6C2E837
:0504B500750A0180C979
:030053000209811E
:0E098100D28085BF0975BFCC000000C2803255
:03004B0002050C9F
:10050C00C0E0C0F0C083C082C0D075D000C000C0B5
:0D051C0001C002C003C004C005C006C00736
:10052900D2801209C4EF24F0600624F07008800319
:08053900120A61750A00C2807C
:10054100D007D006D005D004D003D002D001D0000E
:0B055100D0D0D082D083D0F0D0E032B8
:0A09F3008FE7E5E630E1FBAFE722F5
:0507C00090002DEFF098
:1007C500E4FF12095490002EEFF090002DE0B401E3
:1007D50007A3E04401F0800790002EE054FEF0905E
:0907E500002EE0FDE4FF0208A46F
:0507EE00900003EFF094
:1007F300E4FF120954900004EFF0900003E0B40109
:1008030007A3E04402F08007900004E054FDF09059
:090813000004E0FDE4FF0208A46A
:0500030090002FEFF05A
:10000800E4FF120954900030EFF090002FE01460E4
:100018001014601A24027021900030E054F7F08028
:1000280018900030E04408F0E054FBF0800B90009A
:1000380030E04408F0E04404F0900030E0FDE4FFD4
:030048000208A407
:08038700900024EFF0A3EDF05B
:10038F00E4FF120954900026EFF0900024E024FBC4
:10039F00602414603F24027058900025E060047FB1
:1003AF000080027F01EF5401C454F0FF900026E05B
:1003BF0054EF4FF0803B900025E060047F008002F7
:1003CF007F01EF5401C43354E0FF900026E054DF67
:1003DF004FF0801D900025E060047F0080027F01B8
:1003EF00EF5401C4333354C0FF900026E054BF4F85
:0B03FF00F0900026E0FDE4FF0208A4DF
:0B09C4007D707F071208A4EF5470FF45
:0109CF002205
:10093F007401A807088002C333D8FCFD7F070208A3
:01094F00A403
:080A7F00120A6BEF5470FF2214
:0801D800900018EFF0A3EDF018
:1001E0007F0212095490001AEFF07F011209549017
:1001F000001BEFF0900018E0FF24FA50062407607F
:100200003C80537401A807088002C333D8FCFD90DA
:10021000001AE04DF0900019E0600890001BE04DDE
:10022000F08033900018E0FF7401A807088002C333
:1002300033D8FCF4FF90001BE05FF0801990001AA7
:10024000743FF0900019E0600890001B743FF0804C
:1002500005E490001BF090001AE0FD7F021208A454
:0A02600090001BE0FD7F010208A4DE
:05040A00900027EFF057
:10040F007F02120954900028EFF07F0112095490D7
:10041F000029EFF0900027E0FF24FA500624076030
:10042F001B80207401A807088002C333D8FCF4FD99
:10043F00900028E05DF0A3E05DF08007E4900028D5
:10044F00F0A3F0900028E0FD7F021208A49000298D
:07045F00E0FD7F010208A48B
:10055C0090001DEBF0A3EAF0A3E9F090001CEFF083
:10056C0014600A24FB50216004240670321209FD29
:10057C00900007EFF090001CE0242AFFA3E0FBA3FF
:10058C00E0FAA3E0F902063C90001CE0240AFFA369
:10059C00E0FBA3E0FAA3E0F9120056FD1208A42236
:1005AC00900021EBF0A3EAF0A3E9F0900020EFF02B
:1005BC0014600824FB600424067011900020E0FFF6
:1005CC00A3E0FBA3E0FAA3E0F902026A900020E0AA
:1005DC00240AFF120954900021E0FBA3E0FAA3E0E7
:0805EC00F9EF12009C7F0122CF
:02084A00AB07FA
:10084C00AE04AF057C007DFA1200AEEF14540FC459
:10085C0054F0FF90003FE0540F4FF0EB540FFFE0CB
:0B086C0054F04FF0E0FD7F040208A4F0
:10091700EF24FE5403FF900040E054FC4FF0E0FD4D
:050927007F030208A49B
:0A09FD007F03120954EF2402FF22C9
:070A8700EF2411FF0208A497
:0501190090000EEFF064
:10011E007F0212095490000FEFF07F0112095490E4
:10012E000010EFF090000EE01460201460311460A7
:10013E00421460551460642405707A90000FE054E8
:10014E0001900011F0900010E0806290000FE0C36B
:10015E00135401900011F0900010E0C313804E90E4
:10016E00000FE013135401900011F0900010E013F3
:10017E0013803A90000FE01313135401900011F006
:10018E00900010E0131313802490000FE0C454016C
:10019E00900011F0900010E0C4801290000FE0C4A7
:1001AE00135401900011F0900010E0C4135401900C
:1001BE000012F08007E4900011F0A3F0900012E01E
:0901CE0025E0FF900011E02FFF75
:0101D7002205
:060A95007F081209542243
:0D099D007F08120954EF54F0C4540FFF22DC
:10068100EF146014146015146016146017146018C8
:10069100240570207F1180127F12800E7F13800A43
:1006A1007F1480067F1580027F1612095490004145
:0E06B100EFF08005E4900041F0900041E0FF82
:0106BF002218
:10092C00EF547FFF900042E054804FF0E0FD7F05D4
:03093C000208A40A
:0308C7009000316D
:1008CA00120950900032EFF0900031E0540325E015
:0E08DA00FFA3E054F94FF0E0FD7F060208A4F2
:0306C00090003374
:1006C300120950900034EFF0900033E0600C24FEE8
:1006D3007015900034E044208006900034E054DF2D
:1006E300F0E054F7F0800B900034E054DFF0E04486
:0C06F30008F0900034E0FD7F060208A42F
:0A0A07007F17120954EF5401FF227B
:0C09D0007F17120954EFC3135401FF22DB
:0B09E8007F17120954EFC45401FF22D6
:0C09DC007F17120954EFC4135401FF22CE
:0D09AA007F17120954EF5430C4540FFF2280
:0A0A11007F17120954EF5403FF226F
:060A9B007F17120954222E
:0A0A1B007F08120954EF540FFF2268
:0A0A25007F09120954EF5401FF226B
:01005100228C
:0E098F00EF543F900043F0E0FD7F1C0208A4EF
:0506FF00900035EFF052
:100704007F1D120954900036EFF0900035E060042C
:100714007F0180027F00EF540125E025E0FF900077
:0D07240036E054FB4FF0E0FD7F1D0208A4FD
:05073100900037EFF01D
:100736007F1D120954900038EFF0900037E06004F6
:100746007F0180027F00EF540125E0FF900038E032
:0B07560054FD4FF0E0FD7F1D0208A4E1
:05081C00900039EFF02F
:100821007F1D12095490003AEFF0900039E0600406
:100831007F0180027F00EF5401FF90003AE054FEF7
:090841004FF0E0FD7F1D0208A448
:0A0A2F00900007EDF07FA002063CE6
:0A0A3900900007EDF07FB002063CCC
:0F097200EF44A8FF900017E0900007F002063C4A
:060AA1007F6012095422DF
:060AA7007F0812026A2222
:0A0A4300120A6BEF540EC313FF22DA
:0A0A4D00C2E97FE31209F3D2E922A7
:0D09B700120A9BEF5440C413135403FF2297
:0A0A5700C2E97FE21209F3D2E9229E
:0A0A6100C2E97FE11209F3D2E92295
:090A6B00C2E97FFF1209F3D2E990
:010A7400225F
:0308770090003BB3
:10087A0012095090003CEFF090003BE060047F01C9
:10088A0080027F00EF5401C454F0FF90003CE05412
:0A089A00EF4FF0E0FD7F060208A416
:0307610090003DC8
:1007640012095090003EEFF090003DE060047F01DC
:1007740080027F00EF5401C43333335480FF900070
:0D0784003EE0547F4FF0E0FD7F060208A428
:04095000EFF07F063F
:0C095400C2E91209F3E4FF1209F3D2E932
:010960002274
:0508A400900005EDF0DD
:1008A900C2E9EF2420FF1209F3900006EFF090004F
:0D08B90005E0FF1209F3D2E9900006E0FF10
:0108C600220F
:10026A00900009EBF0A3EAF0A3E9F0900008EFF0A0
:10027A0014600C24FB600824FE60192408703512EF
:10028A0009FD90000CEFF0A3F0C2E9900008E02409
:10029A000AFF801B120A43900008EFF0C39407502C
:1002AA0013120AA190000CEFF0A3F0C2E97F6112C9
:1002BA0009F38009E490000DF090000CF090000C16
:1002CA00E0FF14F0EF601BE4FF1209F3900009E06D
:1002DA00FBA3E475F001120103A9F0FAEF12009CE6
:1002EA0080DBD2E9900008E0FE90000DE0FDEDFF12
:0102FA0022E1
:0B063C00900004EBF0A3EAF0A3E9F04B
:10064700C2E98FE7E4FF900007E0FCEFC39C50206E
:10065700900004E0FBA3E0FAA3E0F98F8275830022
:1006670012006FFDE5E630E1FBAEE78DE70F80D6C0
:09067700E5E630E1FBAEE7D2E953
:010680002257
:0908F70041002C0042002A00011E
:1004BA00E4F5FCEF14600F14601114601314601556
:1004CA0024047016801743FC10801243FC20800D10
:1004DA0043FC30800843FC40800343FC50ED146029
:1004EA000A14600C14600E2403800D43FC02800879
:1004FA0043FC04800343FC06EB700343FC0843FC03
:02050A000122CC
:0A0A75008FFFE5FE30E2FBAFFF2229
:1005F40075BCF0D2CE43A601E4F5BCEF14600A1436
:10060400600C14600E2403800D43BC02800843BCBC
:1006140004800343BC06ED5401F433333354F842ED
:10062400BC75BFAA75BFAA43BC01E5BE30E0089003
:070634000044E5BFF080F374
:01063B00229C
:070A8E0012004E12090122C3
:1007910090002CE045BEF0E0FF30E50A90002AE42D
:1007A100F0A304F0800BEF30E407E490002AF0A3FB
:0E07B100F0EF54CF90002CF090002AA3E0FF50
:0107BF002217
:1009610090002CE045BEF0E030E0037F01227F00E3
:010971002263
:1009010090002CE020E00545BEF080F490002CE042
:0609110054FEF0AFBF220E
:03004E008FBF223F
:030000000202FBFE
:0C02FB00787FE4F6D8FD75814D020342C7
:10005600BB010689828A83E0225002E722BBFE02A8
:09006600E32289828A83E49322DB
:10006F00BB010CE58229F582E5833AF583E0225046
:10007F0006E92582F8E622BBFE06E92582F8E22290
:0D008F00E58229F582E5833AF583E49322AA
:10009C00BB010689828A83F0225002F722BBFE0143
:0200AC00F3223D
:1000AE00BC000BBE0029EF8DF084FFADF022E4CC36
:1000BE00F875F008EF2FFFEE33FEEC33FCEE9DECFF
:1000CE00984005FCEE9DFE0FD5F0E9E4CEFD22ED45
:1000DE00F8F5F0EE8420D21CFEADF075F008EF2F8F
:1000EE00FFED33FD4007985006D5F0F222C398FD80
:0500FE000FD5F0EA221D
:10010300A3F8E0C5F025F0F0E582158270021583AF
:06011300E0C838F0E8220C
:10030700020466E493A3F8E493A34003F68001F2A2
:1003170008DFF48029E493A3F85407240CC8C333F7
:10032700C4540F4420C8834004F456800146F6DFC6
:10033700E4800B01020408102040809008E8E47E66
:10034700019360BCA3FF543F30E509541FFEE493BB
:10035700A360010ECF54C025E060A840B8E493A382
:10036700FAE493A3F8E493A3C8C582C8CAC583CAAD
:10037700F0A3C8C582C8CAC583CADFE9DEE780BE65
:0109000000F6
:00000001FF
