:0F082A00010900010800010F6C010C00010D0015
:1003360075D90175940B75950F75C90275BC017554
:10034600E610D2CEC28075A601D292D2BAD2B9D266
:10035600AF7F011206C27F011206F0E4FD7F041290
:1003660007C3E4FD7F011207C37F107D1B120870CF
:100376007F107D1B120870D290E50D60FCE50A70B7
:10038600FCE4F50DD284E50814600C14600E24021A
:10039600700D750E468008750E108003750E2B7D48
:0F03A6001BAF0E120870750A01C284D29080CA74
:030053000205CFD4
:1005CF00C0E0C0D075D000C000D285E50F701375A4
:1005DF000F1B0508750D01E508B40306750B1075A3
:1005EF000800A80BA6BD050B150FC285D000D0D0F3
:0305FF00D0E03217
:03004B0002050F9C
:04050F00C0E0C0D0B8
:10051300D284C29175E527C2C030C0FD85E57E75E2
:10052300E570C2C030C0FDD291537E70E57E24F0E9
:10053300600624F07011800CC29175E5E1C2C030F1
:09054300C0FDD291750A00C284CA
:05054C00D0D0D0E03228
:0506940090801CEFF056
:10069900E4FF12081D90801DEFF090801CE0B4016A
:1006A90007A3E04401F0800790801DE054FEF0901C
:0906B900801DE0FDE4FF0207C30F
:0506C20090802EEFF016
:1006C700E4FF12081D90802FEFF090802EE0B40118
:1006D70007A3E04402F0800790802FE054FDF090DC
:0906E700802FE0FDE4FF0207C3CF
:0500030090801EEFF0EB
:10000800E4FF12081D90801FEFF090801EE014603E
:100018001014601A2402702190801FE054F7F080B9
:100028001890801FE04408F0E054FBF0800B9080AB
:100038001FE04408F0E04404F090801FE0FDE4FF76
:030048000207C3E9
:08023300908016EFF0A3EDF03E
:10023B00E4FF12081D908018EFF0908016E024FB6D
:10024B00602414603F24027058908017E060047F94
:10025B000080027F01EF5401C454F0FF908018E03E
:10026B0054EF4FF0803B908017E060047F008002DA
:10027B007F01EF5401C43354E0FF908018E054DF4A
:10028B004FF0801D908017E060047F0080027F019B
:10029B00EF5401C4333354C0FF908018E054BF4F68
:0B02AB00F0908018E0FDE4FF0207C3A4
:0B0897007D707F071207C3EF5470FF55
:0108A2002233
:100808007401A807088002C333D8FCFD7F070207DC
:01081800C31C
:08093400120920EF5470FF22AC
:0801150090800AEFF0A3EDF069
:10011D007F0212081D90800CEFF07F0112081D90D8
:10012D00800DEFF090800AE0FF24FA50062407605E
:10013D003C80537401A807088002C333D8FCFD909E
:10014D00800CE04DF090800BE0600890800DE04D4C
:10015D00F0803390800AE0FF7401A807088002C385
:10016D0033D8FCF4FF90800DE05FF0801990800C87
:10017D00743FF090800BE0600890800D743FF0802C
:10018D0005E490800DF090800CE0FD7F021207C316
:0A019D0090800DE0FD7F010207C312
:05042600908019EFF0C9
:10042B007F0212081D90801AEFF07F0112081D90B9
:10043B00801BEFF0908019E0FF24FA500624076030
:10044B001B80207401A807088002C333D8FCF4FD7D
:10045B0090801AE05DF0A3E05DF08007E490801AD5
:10046B00F0A3F090801AE0FD7F021207C390801B6F
:07047B00E0FD7F010207C351
:1004820090800FEBF0A3EAF0A3E9F090800EEFF07A
:1004920014600A24FB501A60042406702B1208C64A
:1004A200AB0790800EE0242AFFA3A3A3E0FD02077E
:1004B2007890800EE0240AFFA3E0FBA3E0FAA3E019
:0904C200F91202B6FD1207C32273
:1004CB00908013EBF0A3EAF0A3E9F0908012EFF029
:1004DB0014600824FB60042406700D908012E0FF6A
:1004EB00A3A3A3E0FD0203B5908012E0240AFF1240
:1004FB00081D908013E0FBA3E0FAA3E0F9EF1202D2
:04050B00CF7F01227B
:02071E00AB0727
:10072000AE04AF057C007DFA1202E1EF14540FC451
:1007300054F0FF908030E0540F4FF0EB540FFFE087
:0B07400054F04FF0E0FD7F040207C3FF
:1007E000EF24FE5403FF908031E054FC4FF0E0FD15
:0507F0007F030207C3B6
:0A08C6007F0312081DEF2402FF2239
:07094400EF2411FF0207C3BD
:05005600908000EFF0B6
:10005B007F0212081D908001EFF07F0112081D90A6
:10006B008002EFF0908000E0146020146031146087
:10007B00421460551460642405707A908001E0543A
:10008B0001908003F0908002E08062908001E0C3D9
:10009B00135401908003F0908002E0C313804E90C4
:1000AB008001E013135401908003F0908002E01361
:1000BB0013803A908001E01313135401908003F0E6
:1000CB00908002E01313138024908001E0C454014C
:1000DB00908003F0908002E0C48012908001E0C415
:1000EB00135401908003F0908002E0C413540190EC
:1000FB008004F08007E4908003F0A3F0908004E08C
:09010B0025E0FF908003E02FFFC6
:0101140022C8
:06094B007F0812081D22C6
:0D0856007F0812081DEF54F0C4540FFF225C
:10055100EF146014146015146016146017146018F9
:10056100240570207F1180127F12800E7F13800A74
:100571007F1480067F1580027F1612081D9080323D
:0E058100EFF08005E4908032F0908032E0FFD1
:01058F002249
:1007F500EF547FFF908033E054804FF0E0FD7F059C
:030805000207C324
:0307A20090802024
:1007A500120819908021EFF0908020E0540325E095
:0E07B500FFA3E054F94FF0E0FD7F060207C3FA
:0305900090802236
:10059300120819908023EFF0908022E0600C24FE73
:1005A3007015908023E044208006908023E054DF80
:1005B300F0E054F7F0800B908023E054DFF0E04448
:0C05C30008F0908023E0FD7F060207C3D3
:0A08D0007F1712081DEF5401FF22EC
:0C08A3007F1712081DEFC3135401FF2241
:0B08BB007F1712081DEFC45401FF223C
:0C08AF007F1712081DEFC4135401FF2234
:0D0863007F1712081DEF5430C4540FFF2200
:0A08DA007F1712081DEF5403FF22E0
:060951007F1712081D22B1
:0A08E4007F0812081DEF540FFF22D9
:0A08EE007F0912081DEF5401FF22DC
:01004E00228F
:0E083A00EF543F908034F0E0FD7F1C0207C3B6
:05060200908024EFF0E0
:100607007F1D12081D908025EFF0908024E0600484
:100617007F0180027F00EF540125E025E0FF9080F5
:0D06270025E054FB4FF0E0FD7F1D0207C3EE
:05063400908026EFF0AC
:100639007F1D12081D908027EFF0908026E060044E
:100649007F0180027F00EF540125E0FF908027E0C1
:0B06590054FD4FF0E0FD7F1D0207C3C1
:0506F00090802EEFF0E8
:1006F5007F1D12081D90802FEFF090802EE0600482
:100705007F0180027F00EF5401FF90802FE054FEAF
:090715004FF0E0FD7F1D0207C357
:0D087000AE05AD07AF06AB077FA00207780D
:0D087D00AE05AD07AF06AB077FB0020778F0
:0E084800EF44A8FFAD01908009E0FB020778A5
:060957007F6012081D2262
:08093C00AD077F081203B5228C
:0A08F800120920EF540EC313FF2273
:0A090200C2917FE312092AD291226C
:0D088A00120951EF5440C413135403FF2210
:0A090C00C2917FE212092AD2912263
:0A091600C2917FE112092AD291225A
:09092000C2917FFF12092AD29155
:0109290022AB
:03074B0090802873
:10074E00120819908029EFF0908028E060047F0154
:10075E0080027F00EF5401C454F0FF908029E054D2
:0A076E00EF4FF0E0FD7F060207C325
:0306640090802A59
:1006670012081990802BEFF090802AE060047F0138
:1006770080027F00EF5401C43333335480FF9080EE
:0D0687002BE0547F4FF0E0FD7F060207C31B
:04081900EFF07F0677
:0C081D00C29112092AE4FF12092AD291AC
:0108290022AC
:1007C300C291EF2420F5E5C2C030C0FD85E57FAFBF
:0C07D300058FE5C2C030C0FDD291AF7FA1
:0107DF0022F7
:0A03B50090802DEDF090802CEFF009
:1003BF0014600C24FB600824FE60162408702F12B2
:1003CF0008C68F7C8F7DC29190802CE0240AFF801D
:1003DF00181208F890802CEFF0C3940750101209F0
:1003EF00578F7C8F7DC2917F6112092A8005E4F5BA
:1003FF007DF57CAF7C157CEF6012E4FF12092A902B
:10040F00802DE0FE04F0A806A60780E7D291908029
:06041F002CE0FEE57DFF6C
:0104250022B4
:02077800A805D2
:10077A00D284C2918FE5C2C0EBD39400400F30C03F
:10078A00FD85E57FE6F5E5C2C01B0880EB30C0FDBC
:07079A0085E57FD291C284C6
:0107A1002235
:0A092A008FE5C2C030C0FDAFE5222A
:030000000201A753
:0C01A700787FE4F6D8FD75817F0201EE40
:1002B600BB010689828A83E0225002E722BBFE0246
:0902C600E32289828A83E4932279
:1002CF00BB010689828A83F0225002F722BBFE010E
:0202DF00F32208
:1002E100BC000BBE0029EF8DF084FFADF022E4CC01
:1002F100F875F008EF2FFFEE33FEEC33FCEE9DECCA
:10030100984005FCEE9DFE0FD5F0E9E4CEFD22ED0F
:10031100F8F5F0EE8420D21CFEADF075F008EF2F59
:10032100FFED33FD4007985006D5F0F222C398FD4A
:050331000FD5F0EA22E7
:1001B300020336E493A3F8E493A34003F68001F229
:1001C30008DFF48029E493A3F85407240CC8C3334D
:1001D300C4540F4420C8834004F456800146F6DF1C
:1001E300E4800B010204081020408090082AE47E7A
:1001F300019360BCA3FF543F30E509541FFEE49311
:10020300A360010ECF54C025E060A840B8E493A3D7
:10021300FAE493A3F8E493A3C8C582C8CAC583CA02
:10022300F0A3C8C582C8CAC583CADFE9DEE780BEBA
:0108390000BE
:00000001FF
