:1005D800E4F593D2EAD2B9D2AF7F011205737D0355
:0E05E800E4FF1207417F01120596D2E880FE63
:03004B000202C4EA
:1002C400C0E0C0F0C083C082C0D075D000C000C000
:0D02D40001C002C003C004C005C006C00781
:1002E10012067AEF30E6131206D5EF700AFB7A0098
:0A02F100792D12076880F0852D803A
:1002FB00D007D006D005D004D003D002D001D00057
:0B030B00D0D0D082D083D0F0D0E03200
:0A06C1008FE7E5E630E1FBAFE7222A
:020573008F0EE9
:10057500E4FF12066D8F0FE50EAF0FB40107EF44D0
:1005850001F50F8005EF54FEF50FAD0FE4FF0205F1
:01059500F66F
:020596008F0EC6
:10059800E4FF12066D8F0FE50EAF0FB40107EF44AD
:1005A80002F50F8005EF54FDF50FAD0FE4FF0205CE
:0105B800F64C
:020003008F3636
:10000500E4FF12066D8F37E53614601014601D2469
:10001500027027AF37EF54F7F537801EAF37EF443F
:1000250008F537AF37EF54FBF537800EAF37EF44A0
:1000350008F537AF37EF4404F537AD37E4FF020570
:01004500F6C4
:0401FF008F308D317F
:10020300E4FF12066D8F32E53024FB601F14603566
:100213002402704CE53160047F0080027F01EF54BB
:1002230001C454F0FFAE32EE54EF8031E531600487
:100233007F0080027F01EF5401C43354E0FFAE32EC
:10024300EE54DF8018E53160047F0080027F01EF08
:100253005401C4333354C0FFAE32EE54BF4FF532B2
:07026300AD32E4FF0205F6D5
:0B067A007D707F071205F6EF5470FF43
:010685002252
:100635007401A807088002C333D8FCFD7F070205B3
:01064500F6BE
:0807390012072FEF5470FF229C
:04026A008F218D2231
:10026E007F0212066D8F237F0112066D8F24E5210A
:10027E0024FA500624076021802EAF217401A807AE
:10028E00088002C333D8FCFF4223E5226005EF420B
:10029E00248015EFF45224800F75233FE52260056C
:1002AE0075243F8003E4F524AD237F021205F6ADDD
:0602BE00247F010205F699
:020316008F3323
:100318007F0212066D8F347F0112066D8F35E5332B
:1003280024FA5006240760168019AF337401A80711
:10033800088002C333D8FCF4523452358005E4F502
:1003480034F535AD347F021205F6AD357F0102056F
:01035800F6AE
:100359008F258B268A278928E52514600A24FB50D6
:10036900196004240670251206CB8F20E525242A5E
:10037900FFAB26AA27A92802040AE525240AFFAB10
:0D03890026AA27A92812004EFD1205F62213
:100441008F298B2A8A2B892CE52914600824FB60CB
:10045100042406700BAB2AAA2BA92CAF2902018D0B
:10046100E529240AFF12066DAB2AAA2BA92CEF124B
:0504710000947F012250
:02047600AB07D2
:10047800AE04AF057C007DFA1200A6EF14540FC439
:1004880054F0FFAE46EE540F4FF546EB540FFFAE57
:0E04980046EE54F04FF546AD467F040205F6E1
:10060D00EF24FE5403FFAE47EE54FC4FF547AD47C4
:05061D007F030205F659
:0A06CB007F0312066DEF2402FF22E8
:07074100EF2411FF0205F691
:0200FB008F1262
:1000FD007F0212066D8F137F0112066D8F14E512AC
:10010D0014601C146029146036146045146050246A
:10011D00057060AF13EF5401F515AF14EF804EAFBE
:10012D0013EFC3135401F515AF14EFC313803EAF96
:10013D0013EF13135401F515AF14EF1313802EAFF6
:10014D0013EF1313135401F515AF14EF131313809D
:10015D001CAF13EFC45401F515AF14EFC4800EAFEF
:10016D0013EFC4135401F515AF14EFC4135401F577
:0F017D00168005E4F515F516E51625E02515FFA6
:01018C002250
:060756007F0812066D226F
:0D0646007F0812066DEF54F0C4540FFF2220
:1003D300EF14601414601514601614601714601879
:1003E3002405701D7F1180127F12800E7F13800AF7
:1003F3007F1480067F1580027F1612066D8F48805A
:0604030003E4F548AF48D8
:0104090022D0
:10062200EF547FFFAE49EE54804FF549AD497F0547
:030632000205F6C8
:0205B9008F3879
:1005BB007F0612066D8F39E538540325E0FFAE39FF
:0D05CB00EE54F94FF539AD397F060205F603
:020396008F3A9C
:100398007F0612066D8F3BE53A600B24FE7017AF9F
:1003A8003BEF44208005AF3BEF54DFF53BAF3BEF1D
:1003B80054F7F53B800EAF3BEF54DFF53BAF3BEF17
:0B03C8004408F53BAD3B7F060205F644
:0A06D5007F1712066DEF5401FF229B
:0C0686007F1712066DEFC3135401FF2212
:0B06B6007F1712066DEFC45401FF22F5
:0C0692007F1712066DEFC4135401FF2205
:0D0653007F1712066DEF5430C4540FFF22C4
:0A06DF007F1712066DEF5403FF228F
:06075C007F1712066D225A
:0A06E9007F0812066DEF540FFF2288
:0A06F3007F0912066DEF5401FF228B
:010046002297
:0C069E00EF543FF54AAD4A7F1C0205F600
:0204D2008F3C5D
:1004D4007F1D12066D8F3DE53C60047F0180027F25
:1004E40000EF540125E025E0FFAE3DEE54FB4FF54F
:0804F4003DAD3D7F1D0205F640
:020525008F3E07
:100527007F1D12066D8F3FE53E60047F0180027FCD
:1005370000EF540125E0FFAE3FEE54FD4FF53FAD10
:060547003F7F1D0205F6D6
:02054D008F40DD
:10054F007F1D12066D8F41E54060047F0180027FA1
:10055F0000EF5401FFAE41EE54FE4FF541AD417F28
:04056F001D0205F66E
:070748008D207FA002040ACE
:07074F008D207FB002040AB7
:0A06FD00EF44A8FF851B2002040A49
:060762007F6012066D220B
:060768007F0812018D2242
:0A07070012072FEF540EC313FF2258
:0A071100C2E97FE31206C1D2E9221B
:0D06600012075CEF5440C413135403FF2233
:0A071B00C2E97FE21206C1D2E92212
:0A072500C2E97FE11206C1D2E92209
:09072F00C2E97FFF1206C1D2E904
:01073800229E
:0204FC008F422D
:1004FE007F0612066D8F43E54260047F0180027F06
:10050E0000EF5401C454F0FFAE43EE54EF4FF543E9
:07051E00AD437F060205F664
:0204A6008F4481
:1004A8007F0612066D8F45E54460047F0180027F58
:1004B80000EF5401C43333335480FFAE45EE547F0C
:0A04C8004FF545AD457F060205F62D
:0C066D00C2E91206C1E4FF1206C1D2E986
:01067900225E
:0205F6008D1066
:1005F800C2E9EF2420FF1206C18F11AF101206C105
:04060800D2E9AF1173
:01060C0022CB
:08018D008F088B098A0A890B17
:10019500E50814600C24FB600824FE601424087034
:1001A5002B1206CB8F0C8F0DC2E9E508240AFF80C0
:1001B500161207078F08EFC3940750101207628FB6
:1001C5000C8F0DC2E97F611206C18005E4F50DF5BE
:1001D5000CAF0C150CEF6019E4FF1206C1AB090555
:1001E5000BE50BAA0A7002050A14F9EF12009480B8
:0901F500E0D2E9E508FEE50DFF8A
:0101FE0022DE
:06040A008B1D8A1E891FF4
:10041000C2E98FE7E4FFEFC39520501BAB1DAA1E76
:10042000A91F8F82758300120067FDE5E630E1FBAE
:10043000AEE78DE70F80DFE5E630E1FBAEE7D2E91E
:010440002299
:030000000206AA4B
:0C06AA00787FE4F6D8FD75814A0205D87F
:10004E00BB010689828A83E0225002E722BBFE02B0
:09005E00E32289828A83E49322E3
:10006700BB010CE58229F582E5833AF583E022504E
:1000770006E92582F8E622BBFE06E92582F8E22298
:0D008700E58229F582E5833AF583E49322B2
:10009400BB010689828A83F0225002F722BBFE014B
:0200A400F32245
:1000A600BC000BBE0029EF8DF084FFADF022E4CC3E
:1000B600F875F008EF2FFFEE33FEEC33FCEE9DEC07
:1000C600984005FCEE9DFE0FD5F0E9E4CEFD22ED4D
:1000D600F8F5F0EE8420D21CFEADF075F008EF2F97
:1000E600FFED33FD4007985006D5F0F222C398FD88
:0500F6000FD5F0EA2225
:00000001FF
