:1005B90075E610E4F594D292D2B9D2AF7F01120553
:1005C900737D03E4FF1207447F01120596D29080E0
:0105D900FE23
:03004B000202C4EA
:1002C400C0E0C0F0C083C082C0D075D000C000C000
:0D02D40001C002C003C004C005C006C00781
:1002E10012067DEF30E6131206CEEF700AFB7A009C
:0A02F100792D12076B80F0852D8037
:1002FB00D007D006D005D004D003D002D001D00057
:0B030B00D0D0D082D083D0F0D0E03200
:020573008F0EE9
:10057500E4FF1206708F0FE50EAF0FB40107EF44CD
:1005850001F50F8005EF54FEF50FAD0FE4FF0205F1
:01059500F96C
:020596008F0EC6
:10059800E4FF1206708F0FE50EAF0FB40107EF44AA
:1005A80002F50F8005EF54FDF50FAD0FE4FF0205CE
:0105B800F949
:020003008F3636
:10000500E4FF1206708F37E53614601014601D2466
:10001500027027AF37EF54F7F537801EAF37EF443F
:1000250008F537AF37EF54FBF537800EAF37EF44A0
:1000350008F537AF37EF4404F537AD37E4FF020570
:01004500F9C1
:0401FF008F308D317F
:10020300E4FF1206708F32E53024FB601F14603563
:100213002402704CE53160047F0080027F01EF54BB
:1002230001C454F0FFAE32EE54EF8031E531600487
:100233007F0080027F01EF5401C43354E0FFAE32EC
:10024300EE54DF8018E53160047F0080027F01EF08
:100253005401C4333354C0FFAE32EE54BF4FF532B2
:07026300AD32E4FF0205F9D2
:0B067D007D707F071205F9EF5470FF3D
:01068800224F
:100638007401A807088002C333D8FCFD7F070205B0
:01064800F9B8
:08073C00120728EF5470FF22A0
:04026A008F218D2231
:10026E007F021206708F237F011206708F24E52104
:10027E0024FA500624076021802EAF217401A807AE
:10028E00088002C333D8FCFF4223E5226005EF420B
:10029E00248015EFF45224800F75233FE52260056C
:1002AE0075243F8003E4F524AD237F021205F9ADDA
:0602BE00247F010205F996
:020316008F3323
:100318007F021206708F347F011206708F35E53325
:1003280024FA5006240760168019AF337401A80711
:10033800088002C333D8FCF4523452358005E4F502
:1003480034F535AD347F021205F9AD357F0102056C
:01035800F9AB
:100359008F258B268A278928E52514600A24FB50D6
:10036900196004240670251206C48F20E525242A65
:10037900FFAB26AA27A92802040AE525240AFFAB10
:0D03890026AA27A92812004EFD1205F92210
:100441008F298B2A8A2B892CE52914600824FB60CB
:10045100042406700BAB2AAA2BA92CAF2902018D0B
:10046100E529240AFF120670AB2AAA2BA92CEF1248
:0504710000947F012250
:02047600AB07D2
:10047800AE04AF057C007DFA1200A6EF14540FC439
:1004880054F0FFAE46EE540F4FF546EB540FFFAE57
:0E04980046EE54F04FF546AD467F040205F9DE
:10061000EF24FE5403FFAE47EE54FC4FF547AD47C1
:050620007F030205F953
:0A06C4007F03120670EF2402FF22EC
:07074400EF2411FF0205F98B
:0200FB008F1262
:1000FD007F021206708F137F011206708F14E512A6
:10010D0014601C146029146036146045146050246A
:10011D00057060AF13EF5401F515AF14EF804EAFBE
:10012D0013EFC3135401F515AF14EFC313803EAF96
:10013D0013EF13135401F515AF14EF1313802EAFF6
:10014D0013EF1313135401F515AF14EF131313809D
:10015D001CAF13EFC45401F515AF14EFC4800EAFEF
:10016D0013EFC4135401F515AF14EFC4135401F577
:0F017D00168005E4F515F516E51625E02515FFA6
:01018C002250
:060759007F081206702269
:0D0649007F08120670EF54F0C4540FFF221A
:1003D300EF14601414601514601614601714601879
:1003E3002405701D7F1180127F12800E7F13800AF7
:1003F3007F1480067F1580027F161206708F488057
:0604030003E4F548AF48D8
:0104090022D0
:10062500EF547FFFAE49EE54804FF549AD497F0544
:030635000205F9C2
:0205DA008F3858
:1005DC007F061206708F39E538540325E0FFAE39DB
:0D05EC00EE54F94FF539AD397F060205F9DF
:020396008F3A9C
:100398007F061206708F3BE53A600B24FE7017AF9C
:1003A8003BEF44208005AF3BEF54DFF53BAF3BEF1D
:1003B80054F7F53B800EAF3BEF54DFF53BAF3BEF17
:0B03C8004408F53BAD3B7F060205F941
:0A06CE007F17120670EF5401FF229F
:0C0689007F17120670EFC3135401FF220C
:0B06B9007F17120670EFC45401FF22EF
:0C0695007F17120670EFC4135401FF22FF
:0D0656007F17120670EF5430C4540FFF22BE
:0A06D8007F17120670EF5403FF2293
:06075F007F171206702254
:0A06E2007F08120670EF540FFF228C
:0A06EC007F09120670EF5401FF228F
:010046002297
:0C06A100EF543FF54AAD4A7F1C0205F9FA
:0204D2008F3C5D
:1004D4007F1D1206708F3DE53C60047F0180027F22
:1004E40000EF540125E025E0FFAE3DEE54FB4FF54F
:0804F4003DAD3D7F1D0205F93D
:020525008F3E07
:100527007F1D1206708F3FE53E60047F0180027FCA
:1005370000EF540125E0FFAE3FEE54FD4FF53FAD10
:060547003F7F1D0205F9D3
:02054D008F40DD
:10054F007F1D1206708F41E54060047F0180027F9E
:10055F0000EF5401FFAE41EE54FE4FF541AD417F28
:04056F001D0205F96B
:07074B008D207FA002040ACB
:070752008D207FB002040AB4
:0A06F600EF44A8FF851B2002040A50
:060765007F601206702205
:06076B007F0812018D223F
:0A070000120728EF540EC313FF2266
:0A070A00C2917FE3120732D2912260
:0D06630012075FEF5440C413135403FF222D
:0A071400C2917FE2120732D2912257
:0A071E00C2917FE1120732D291224E
:09072800C2917FFF120732D29149
:0107310022A5
:0204FC008F422D
:1004FE007F061206708F43E54260047F0180027F03
:10050E0000EF5401C454F0FFAE43EE54EF4FF543E9
:07051E00AD437F060205F961
:0204A6008F4481
:1004A8007F061206708F45E54460047F0180027F55
:1004B80000EF5401C43333335480FFAE45EE547F0C
:0A04C8004FF545AD457F060205F92A
:0C067000C291120732E4FF120732D2914F
:01067C00225B
:0205F9008D1063
:1005FB00C291EF2420FF1207328F11AF1012073276
:04060B00D291AF11C8
:01060F0022C8
:08018D008F088B098A0A890B17
:10019500E50814600C24FB600824FE601424087034
:1001A5002B1206C48F0C8F0DC291E508240AFF801F
:1001B500161207008F08EFC3940750101207658FBA
:1001C5000C8F0DC2917F611207328005E4F50DF5A4
:1001D5000CAF0C150CEF6019E4FF120732AB0905E3
:1001E5000BE50BAA0A7002050A14F9EF12009480B8
:0901F500E0D291E508FEE50DFFE2
:0101FE0022DE
:06040A008B1D8A1E891FF4
:10041000C2918FE5C2C0E4FFEFC39520501BAB1D16
:10042000AA1EA91F8F82758300120067FD30C0FDD0
:10043000AEE58DE5C2C00F80DF30C0FDAEE5D291E4
:010440002299
:0A0732008FE5C2C030C0FDAFE52224
:030000000206AD48
:0C06AD00787FE4F6D8FD75814A0205B99B
:10004E00BB010689828A83E0225002E722BBFE02B0
:09005E00E32289828A83E49322E3
:10006700BB010CE58229F582E5833AF583E022504E
:1000770006E92582F8E622BBFE06E92582F8E22298
:0D008700E58229F582E5833AF583E49322B2
:10009400BB010689828A83F0225002F722BBFE014B
:0200A400F32245
:1000A600BC000BBE0029EF8DF084FFADF022E4CC3E
:1000B600F875F008EF2FFFEE33FEEC33FCEE9DEC07
:1000C600984005FCEE9DFE0FD5F0E9E4CEFD22ED4D
:1000D600F8F5F0EE8420D21CFEADF075F008EF2F97
:1000E600FFED33FD4007985006D5F0F222C398FD88
:0500F6000FD5F0EA2225
:00000001FF
