:03000000020B519F
:100B5100787FE4F6D8FD9080007FFF7E08E4F0A363
:100B6100DFFCDEFA78007FFFE4F208DFFC758161CB
:030B7100020BAFC5
:061A2A0050696E67210007
:10185E0001130001180001150001160041806200FD
:100C9700E4F559F5A375940BC29075E610D292D27C
:100CA700B990C7DDE04401F090804B74FFF0A37466
:100CB70019F0A37467F0A374FFF0A37419F0A37479
:100CC7005DF0A374FFF0A37416F0A374E7F07BFF45
:100CD7007A11798E7F011206B77BFF7A1779BC7D6F
:100CE700207F821207E47BFF7A1279D37D207F026F
:100CF7001207E49080677401F0A3F0E4F517D2AF10
:100D07001218BB7518207558AA7538AAE5591460CA
:100D170011146015146012240370F112151D8F59F8
:100D270080EA12110D8F5980E3121A248F5980DC43
:10110D0012005E8F5AE4908047F0E55AB401037FD8
:10111D000222E55AB402037F0322908069E0600A3F
:10112D00E4F07D087B0BFF121A1DE5166050E4F507
:10113D0016D2857EC67F007CC77DB9E4908047F0CE
:10114D00908047E0F9E513C43354E0241929F8E6FB
:10115D00FB8F828E83EF29F582E43EF583EBF090D1
:10116D008047E004F0E0B420D78D828C837420F0AA
:10117D00E5136005E4F5138003751301C2857F0146
:01118D00223F
:10151D0012005EBF01037F022212005EBF02037F35
:10152D0003227F0112154D7F011214BA7F0112188B
:10153D00A07F011215AD7F011215DBD2907F012224
:061A2400121A0F7F0122DF
:0300530002169101
:10169100C0E0C0D075D000C000E5187009751820F1
:1016A1006313017516011518E513C43354E02419A9
:0C16B1002518F8A6BDD000D0D0D0E03243
:03004B00020BF4B1
:100BF400C0E0C0F0C083C082C0D075D000C000C0C7
:0D0C040001C002C003C004C005C006C00747
:100C1100E513C43354E02419908054F0755C00D27C
:100C210085C29175E527C2C030C0FDAFE575E5709D
:100C3100C2C030C0FDD291EF5470FF30E63B1219B3
:100C4100A3EFC39407500E121A488F5CC2917F61C3
:100C51001219D58003755C00AF5C155CEF601575EA
:100C6100E500C2C030C0FD908054E0FF04F0A80749
:0B0C7100A6E580E4D291751601C28553
:100C7C00D007D006D005D004D003D002D001D000CC
:0B0C8C00D0D0D082D083D0F0D0E03276
:0D18AE0075E610D2B9D2927F011215AD225D
:071A0F00121838E4F517225C
:03005E00AF1722B7
:0C18BB00121A36908047EFF0E0B404F4FD
:0118C70022FE
:10118E0090FFFD1202E9EBF0A3EAF0A3E9F090FF65
:04119E00F91202E957
:1011A200855F83856082A3A882AC837D017BFF7A01
:1011B2001A792A7E007F061201367B01855F8385BC
:1011C2006082A3A982AA83C003C002C00190000A60
:1011D20012030DE0FBA3E0FAA3E0F912023E900035
:1011E2000D12030DE0FBA3E0FAA3E0F9E475F006AB
:0E11F20012021F855F838560827404F0E0FFA7
:061200009000100202E95B
:1016E70090FFFF1202E9EFF075D901855F838560EE
:1016F70082E0B4010875A52A751701800675A50A49
:091707007517029000010202E9CD
:0A195D009080677401F0E4F5172292
:0A1967009080677401F0E4F5172288
:1017BC0090FFFD1202E9EBF0A3EAF0A3E9F09080B0
:0C17CC00677401F07F609000060202E9E3
:1012D30090FFFE1202E9ECF0A3EDF090FFFE120284
:0612E300E9EEF0A3EFF0BC
:1012E90090806074C5F0A374C0F09080697401F0B7
:1012F900E4908062F0908062E0FF908060E0FCA35F
:10130900E02FF582E43CF583E0FE74082FF8A60689
:0C131900908062E004F0E0B40BDB7FFF8A
:061325009000040202E941
:1006B700908048EBF0A3EAF0A3E9F090802374FF61
:1006C700F0A3740DF0A37437F0F990802374FFF052
:1006D700A3740DF0A3E9F0A374FFF0A3740DF0A3C6
:1006E7007449F0A374FFF0A3740DF0A374C1F0A3D1
:1006F7007404F0A314F0A37409F0A37404F09080B9
:10070700337402F0E4908030F0908046F0908031AE
:10071700F0A3F0908048E0F9A3E0FAA3E0908034DA
:10072700C9F0A3EAF0A3E9F090804BE0F9A3E0FA5F
:10073700A3E0908037C9F0A3EAF0A3E9F090804ED8
:10074700E0F9A3E0FAA3E090803AC9F0A3EAF0A3A6
:10075700E9F0908051E0F9A3E0FAA3E090803DC969
:10076700F0A3EAF0A3E9F0EF601390C7D6E04408DE
:10077700F07F321217D890C7D6E054F7F0D2BBD229
:10078700BC90C7AE741DF090C7AC7401F090C7A9B8
:10079700741FF090C7AD7401F090C7AA741FF09052
:1007A700C7817410F0A37420F0A37430F0A37440D1
:1007B700F0A37450F090C78874C0F0A37410F0A32E
:1007C7007420F0A37430F0A37440F0A37450F09039
:0D07D700C7DE7401F0A3F0E4A3F0A3F0224C
:10000300EF547F1425E0FEEF30E70BEE7E0024B6BD
:10001300F9EE34C7800BAF067E0074C62FF9EE34B9
:10002300C7AF0190805CF0A3EFF0ED90805CB4016A
:100033000CE0FEA3E0F5828E837401F022E0FEA3C0
:07004300E0F5828E83E4F07A
:01004A002293
:061A300090C7DBE0FF227D
:0D07E400908047EBF0A3EAF0A3E9F0AC072A
:1007F100EC547FFF14FE7401A807088002C333D8AC
:10080100FC90804AF0EC30E759908047E0FBA3E090
:10081100FAA3E0F9EE75F003A42405F582E434802F
:10082100F583EBF0A3EAF0A3E9F0908047E0FBA3A6
:10083100E0FAA3E04A4B90C7AC6014E0FF90804A15
:10084100E0FEEF4E90C7ACF090C7DEE04EF022E044
:10085100FF90804AE0F4FEEF5E90C7ACF090C7DEF7
:10086100806A908047E0FBA3E0FAA3E0F9EE75F01F
:1008710003A42414F582E43480F583EBF0A3EAF0B9
:10088100A3E9F0908047E0FBA3E0FAA3E04A4B9094
:10089100C7AD6027E0FF90804AE0FEEF4E90C7AD04
:1008A100F090C7DFE04EF0EC75F002A424C5F974B6
:1008B100C735F08982F58374FFF022E0FF90804A0A
:0F08C100E0F4FEEF5E90C7ADF090C7DFE05EF0B1
:0108D0002205
:10183800908030E030E10B75A0407F011217D8E4AA
:03184800F5A022E6
:031A5A00D2A722EE
:061A3600908033E0FF2266
:100E5D0090806BEBF0A3EAF0A3E9F090806AEFF0DD
:100E6D00547F75F080A4FFC374009FF974C795F08B
:100E7D00AF0190806FF0A3EFF090806AE0547F7522
:100E8D00F002A424B5F974C735F0AF01908071F06C
:100E9D00A3EFF0E4F56190806EE0FFE561C39F5034
:100EAD002A90806BE0FBA3E0FAA3E0F985618275DF
:100EBD008300120175FF90806FE0FCA3E02561F5C2
:100ECD0082E43CF583EFF0056180CB90806EE0FF0E
:0D0EDD00908071E0FCA3E0F5828C83EFF0C3
:010EEA0022E5
:0819DF0090C7D6E04408F02295
:0819E70090C7D6E054F7F0228E
:04004E0075D901223D
:10173600908000EBF0A3EAF0A3E9F0A3EDF090802F
:1017460023E0FBA3E0FAA3E0F990000712017590ED
:041756008004F022F9
:100F7600908003E0FD7021908046E0B4010890C7A0
:100F8600B4E04410F0229080467401F0E490C7B5B6
:100F9600F090C7B47402F022908004E0FFEDC39F86
:100FA6005007908003E0FF8000E4FEEEC39F5023CD
:100FB600908000E0FBA3E0FAA3E0F98E827583003F
:100FC600120175FD74002EF582E434C7F583EDF049
:100FD6000E80D8908004E0FEEFC39E5006908046B7
:100FE6007401F090C7B5EFF0FD908001E48DF0122A
:090FF6000209908003E0C39FF0A2
:010FFF0022CF
:101000007B017A80795F90FFFD1202E9EBF0A3EAA1
:10101000F0A3E9F07B017A80795C90FFFD1202E990
:10102000EBF0A3EAF0A3E9F07B017A807940C002FB
:10103000908034A3E0FAA3E0F5828A83D002120202
:10104000E7EF14603014603414603E24FE60260420
:10105000703190805CE0FBA3E0FAA3E0F9A3E0FF2D
:10106000908045E0FEC39F5004AD068002AD07129C
:101070001736020F7690C7B47402F02290C7C57479
:09108000FFF02290C7B47411F0D6
:011089002244
:1009BA00908033E0FF64037028908044E060030273
:1009CA000A8B908026E0FBA3E0FAA3E0F9900007E7
:1009DA001201755440C41313540390C701F0020A5C
:1009EA007EEF64046003020A8B90C701F090804096
:1009FA00E0247F604014604024026003020A899068
:100A0A008030E030E10890C7007402F08005E4907D
:100A1A00C700F090C700E0FF908026E0FBA3E0FA51
:100A2A00A3E0F99000071201755440C4131354034C
:100A3A00FEEF4E803FE4803C908044E030E70D5466
:100A4A007F75F002A424B4F974C7800F908044E043
:100A5A00547F75F002A424C4F974C735F0AF01902D
:100A6A00805CF0A3EFF090805CE0FEA3E0F5828E5C
:100A7A0083E0540190C700F090C7B57402F0228059
:070A8A000090C7B47411F0E5
:010A91002242
:1008D100908042E024FE603014604B24FA40030211
:1008E10009AF240860030209B6908023E0FBA3E06E
:1008F100FAA3E0F9908045E0FFC394125005AD07DB
:100901000209A97D120209A9908026E0FBA3E0FA61
:10091100A3E0F9908045E0FFC394205004AD078027
:10092100027D200209A9908043E0FC70187B017AC6
:1009310080792C908045E0FFC394045004AD07807A
:10094100027D048063EC14C394025062908029E01C
:10095100FBA3E0FAA3E0F9908043E0FF75F003A464
:1009610024FDF582E5F034FFF58312028DC003C04A
:1009710002C001908029E0FBA3E0FAA3E0F9EF14A3
:1009810075F003A4F58285F08312028D12015CFFDC
:10099100908045E0FEC39F5004AD06800512015CC6
:1009A100FFFDD001D002D003121736020F7690C797
:0909B100B47411F02212100022AE
:10054F0090C7E8E0908040F090C7E9E0908041F0DC
:10055F0090C7EAE0908043F090C7EBE0908042F0C4
:10056F0090C7ECE0908044F090C7EEE0908045F0AB
:10057F0090C7EFE0D39400400690804574FFF09051
:10058F008040E054606003020691A3E0B40B00408A
:10059F000302068F9005AAF82828730205CE0205DC
:1005AF00D102068F0205D102068F0206220205CB69
:1005BF0002068F02062E02064B0206800208D102A7
:1005CF0009BA908040E024FE60242402704290809B
:1005DF0043E0B40116908041E0908030B40106E012
:1005EF0054FDF0806CE04402F080660206B090800B
:1005FF0043E07019908041E0908044B40106E0FF21
:10060F00E4FD8004E0FF7D0112000380440206B088
:10061F000206B09080337403F0E4908031F02290A2
:10062F008033E024FC600E047010E490C700F0905B
:10063F00C7B504F022908031803A8065908043E006
:10064F001460150470299080337403F0E4908031A6
:10065F00F090C7B47402F0229080337404F090804D
:10066F0030E04401F0A37401F090C7B404F022808D
:10067F0030908032E090C700F090C7B57401F0223F
:10068F00801F908040E0FF5460FEBE201490804594
:10069F00E0600BEF20E70790C7C574FFF022021050
:0806AF000090C7B47411F022A1
:10147E00E4FD908030E054FBF0908033E0B404083B
:10148E00908030E030E1010D9080337405F0908053
:10149E003DE0FBA3E0FAA3E04A4B600FAF0590805E
:0B14AE003DA3A3E0F5828A831202E751
:0114B9002210
:1016BD009080337402F0E4908031F0A3F09080308C
:1016CD00F0908037E0FBA3E0FAA3E04A4B600A906C
:0A16DD008037A3A3E0F91202E32214
:03005B00020EEBA7
:100EEB00C0E0C0F0C083C082C0D075D000C000C0CD
:0D0EFB0001C002C003C004C005C006C0074E
:100F080090C7D6E030E7277480F0908030E030E179
:100F18002490C7D6E04402F00000E054FD4401F0FC
:100F28007F071217D890C7D6E054FEF0800790804C
:100F380030E04404F0908030E090803330E0057475
:100F480004F080037402F090803AA3E0FAA3E0F979
:030F58001202E39F
:100F5B00D007D006D005D004D003D002D001D000EA
:0B0F6B00D0D0D082D083D0F0D0E03294
:1014EC00A9078B828A83E9B4FF0474FFF022E930E8
:1014FC00E7088D828C837401F022E95460FFBF6091
:10150C00088D828C837402F022E97002F022E9F0DB
:01151C0022AC
:0300630002035C39
:10035C00C0E0C0F0C083C082C0D075D000C000C067
:0D036C0001C002C003C004C005C006C007E8
:10037900D28590C7A8E01202BD03B90003C50403E2
:10038900CE0803E80C03F410040018040C1C041D27
:100399002004A024041D2804A02C041D3004A0342A
:1003A900041D3804A03C041D4004A044000005328B
:1003B90090C7AB7401F012054F02053290C7AB74B8
:1003C90002F002053290C7AB7404F0908000E4F0AB
:1003D900A3F0A3F0A3F0A3F0908046F002053290B9
:1003E900C7AB7408F012147E02053290C7AB7410C3
:1003F900F01216BD02053290C7A97401F0120F76EA
:1004090002053290C7AA7401F0908003E4F012103B
:100419000002053290C7A8E024E8131313541F9073
:100429008055F0E0FF7401A807088002C333D8FCA7
:1004390090C7A9F0EF547F75F002A424B4F974C7EA
:1004490035F0AF01908056F0A3EFF0908055E0545D
:100459007F75F080A4FFC374009FF974C795F0AF4E
:1004690001908058F0A3EFF0908055E0547F75F02B
:1004790002A424B5F974C735F0AF0190805AF0A3EE
:10048900EFF0908056E0FCA3E0FD90805AE0FAA3DB
:10049900E0FB7F6002052F90C7A8E024E413131343
:1004A900541F908055F0E0FF7401A807088002C32B
:1004B90033D8FC90C7AAF0EF547F75F002A424C486
:1004C900F974C735F0AF01908056F0A3EFF0908032
:1004D90055E075F080A4FFC374C09FF974C695F008
:1004E900AF01908058F0A3EFF0908055E075F002CD
:1004F900A47AC724C5F974C735F0AF0190805AF0C2
:10050900A3EFF090805AE0FCA3E0FD908058E0FE54
:10051900A3E0FF1212D3908056E0FCA3E0FD908087
:0B0529005AE0FAA3E0FB1214ECC285BC
:10053400D007D006D005D004D003D002D001D0001B
:0B054400D0D0D082D083D0F0D0E032C5
:1017D800E4FEEEC39F5012E4FDE4FC000CECB416EA
:0917E800FA0DEDB462F30E80E984
:0117F10022D5
:100D370012010002FFFFFF20151909090100010236
:100D4700000109022000010102E03209040000024B
:100D5700FF00FF0007058202400006070502024068
:100D670000062A034E006F007200640069006300EA
:100D77002000530065006D00690063006F006E007E
:100D870064007500630074006F0072002E03430057
:100D970049004400200057006900660069002000F0
:100DA700480065006100640073007400610067001B
:100DB70065002000520058002000FF0D69FF0D93C9
:040DC7000403090414
:0515AD00908047EFF003
:1015B200E4FF121884908048EFF0908047E0B40175
:1015C20007A3E04401F08007908048E054FEF090C9
:0915D2008048E0FDE4FF02179FD0
:0515DB00908047EFF0D5
:1015E000E4FF121884908048EFF0908047E0B40147
:1015F00007A3E04402F08007908048E054FDF0909B
:091600008048E0FDE4FF02179FA1
:0513740090808AEFF0FB
:10137900E4FF12188490808BEFF090808AE014606B
:101389001014601A2402702190808BE054F7F080C9
:101399001890808BE04408F0E054FBF0800B9080BB
:1013A9008BE04408F0E04404F090808BE0FDE4FF1A
:0313B90002179F79
:08108A00908084EFF0A3EDF06B
:10109200E4FF121884908086EFF0908084E024FBB5
:1010A200602414603F24027058908085E060047FC1
:1010B2000080027F01EF5401C454F0FF908086E06B
:1010C20054EF4FF0803B908085E060047F00800207
:1010D2007F01EF5401C43354E0FF908086E054DF77
:1010E2004FF0801D908085E060047F0080027F01C8
:1010F200EF5401C4333354C0FF908086E054BF4F95
:0B110200F0908086E0FDE4FF02179FE4
:0B1923007D707F0712179FEF5470FFCC
:01192E002296
:10186F007401A807088002C333D8FCFD7F07021755
:01187F009FC9
:0819EF001219CBEF5470FF2226
:080DCB00908078EFF0A3EDF039
:100DD3007F0212188490807AEFF07F0112188490BA
:100DE300807BEFF0908078E0FF24FA5006240760C0
:100DF3003C80537401A807088002C333D8FCFD90DC
:100E0300807AE04DF0908079E0600890807BE04D3F
:100E1300F08033908078E0FF7401A807088002C354
:100E230033D8FCF4FF90807BE05FF0801990807AE8
:100E3300743FF0908079E0600890807B743FF0808D
:100E430005E490807BF090807AE0FD7F0212179F8B
:0A0E530090807BE0FD7F0102179FF5
:05127700908087EFF0FC
:10127C007F02121884908088EFF07F0112188490FE
:10128C008089EFF0908087E0FF24FA5006240760F5
:10129C001B80207401A807088002C333D8FCF4FD1E
:1012AC00908088E05DF0A3E05DF08007E49080889A
:1012BC00F0A3F0908088E0FD7F0212179F90808948
:0712CC00E0FD7F0102179F06
:10132B0090807DEBF0A3EAF0A3E9F090807CEFF0E6
:10133B0014600A24FB501A60042406702B121971D6
:10134B00AB0790807CE0242AFFA3A3A3E0FD021748
:10135B001090807CE0240AFFA3E0FBA3E0FAA3E05B
:09136B00F912015CFD12179F222A
:1013BC00908081EBF0A3EAF0A3E9F0908080EFF04D
:1013CC0014600824FB60042406700D908080E0FFFC
:1013DC00A3A3A3E0FD021206908080E0240AFF1272
:1013EC001884908081E0FBA3E0FAA3E0F9EF1201EE
:0413FC00A27F0122A9
:02163700AB07FF
:10163900AE04AF057C007DFA1201B4EF14540FC457
:1016490054F0FF90809AE0540F4FF0EB540FFFE0F5
:0B16590054F04FF0E0FD7F0402179FEB
:10182300EF24FE5403FF90809BE054FC4FF0E0FD57
:051833007F0302179F76
:0A1971007F03121884EF2402FF2206
:071A1600EF2411FF02179FEE
:050A9200908073EFF0FD
:100A97007F02121884908074EFF07F0112188490FF
:100AA7008075EFF0908073E014602014603114605B
:100AB700421460551460642405707A908074E05481
:100AC70001908076F0908075E08062908074E0C33A
:100AD700135401908076F0908075E0C313804E9098
:100AE7008074E013135401908076F0908075E013C2
:100AF70013803A908074E01313135401908076F0BA
:100B0700908075E01313138024908074E0C454011F
:100B1700908076F0908075E0C48012908074E0C475
:100B2700135401908076F0908075E0C413540190BF
:100B37008077F08007E4908076F0A3F0908077E0EC
:090B470025E0FF908076E02FFF0D
:010B50002282
:061A3C007F08121884224D
:0D18C8007F08121884EF54F0C4540FFF2263
:10140000EF1460141460151460161460171460183B
:10141000240570207F1180127F12800E7F13800AB6
:101420007F1480067F1580027F1612188490809C9E
:0E143000EFF08005E490809CF090809CE0FF3F
:01143E00228B
:10184B00EF547FFF90809DE054804FF0E0FD7F05CB
:03185B0002179FD2
:03177E0090808CCC
:1017810012188090808DEFF090808CE0540325E05A
:0E179100FFA3E054F94FF0E0FD7F0602179F22
:03143F0090808E0C
:1014420012188090808FEFF090808EE0600C24FE66
:10145200701590808FE04420800690808FE054DFEA
:10146200F0E054F7F0800B90808FE054DFF0E0441E
:0C14720008F090808FE0FD7F0602179FBD
:0A197B007F17121884EF5401FF22B9
:0C192F007F17121884EFC3135401FF222D
:0B1947007F17121884EFC45401FF2228
:0C193B007F17121884EFC4135401FF2220
:0D18D5007F17121884EF5430C4540FFF2207
:0A1985007F17121884EF5403FF22AD
:061A42007F171218842238
:0A198F007F08121884EF540FFF22A6
:0A1999007F09121884EF5401FF22A9
:01005200228B
:0E18A000EF543F908047F0E0FD7F1C02179F41
:0514BA00908047EFF0F7
:1014BF007F1D121884908048EFF0908047E0600401
:1014CF007F0180027F00EF540125E025E0FF90802F
:0D14DF0048E054FB4FF0E0FD7F1D02179F19
:05154D00908047EFF063
:101552007F1D121884908048EFF0908047E060046D
:101562007F0180027F00EF540125E0FF908048E078
:0B15720054FD4FF0E0FD7F1D02179FAD
:05160900908090EFF05D
:10160E007F1D121884908091EFF0908090E060041E
:10161E007F0180027F00EF5401FF908091E054FE25
:09162E004FF0E0FD7F1D02179F43
:0D18E200AE05AD07AF06AB077FA0021710E3
:0D18EF00AE05AD07AF06AB077FB0021710C6
:071A1D00EF44A8FF021710BF
:061A48007F6012188422E9
:0819F700AD077F081212062261
:0A19A3001219CBEF540EC313FF22FC
:0A19AD00C2917FE31219D5D29122F6
:0D18FC00121A42EF5440C413135403FF228C
:0A19B700C2917FE21219D5D29122ED
:0A19C100C2917FE11219D5D29122E4
:0919CB00C2917FFF1219D5D291DF
:0119D40022F0
:03166400908092E1
:10166700121880908093EFF0908092E060047F01E1
:1016770080027F00EF5401C454F0FF908093E05440
:0A168700EF4FF0E0FD7F0602179F11
:03157D00908094C7
:10158000121880908095EFF0908094E060047F01C5
:1015900080027F00EF5401C43333335480FF9080C6
:0D15A00095E0547F4FF0E0FD7F0602179F9D
:04188000EFF07F0600
:0C188400C2911219D5E4FF1219D5D291BF
:011890002235
:10179F00C291EF2420F5E5C2C030C0FD85E55AAFF8
:0C17AF00058FE5C2C030C0FDD291AF5ADA
:0117BB00220B
:0A120600908097EDF0908096EFF0D5
:1012100014600C24FB600824FE60162408702F1252
:1012200019718F5D8F5EC291908096E0240AFF80D5
:10123000181219A3908096EFF0C394075010121A59
:10124000488F5D8F5EC2917F611219D58005E4F5EC
:101250005EF55DAF5D155DEF6012E4FF1219D5908C
:101260008097E0FE04F0A806A60780E7D291908060
:0612700096E0FEE55EFFC2
:011276002255
:02171000A8052A
:10171200C2918FE5C2C0EBD39400400F30C0FD856B
:10172200E55BE6F5E5C2C01B0880EB30C0FD85E550
:031732005BD291F6
:011735002291
:0A19D5008FE5C2C030C0FDAFE5226F
:0D190900AB07ECF5ABEDF5ACAF038FAD22F5
:0A1952008FADAFABEFFEADACEDFFC3
:01195C002268
:0819FF00E4FDFC7F0B02190955
:10175A00AE078D828C83E4FDFC7F0B121909C2C58A
:10176A00EEFD7F09121909AE83AF82AD07AC067F81
:04177A000A0219093D
:061A4E007F031219522271
:081A07007F01121952EEFF22CB
:061A540030C5FDC2C522F1
:0F189100908098EEF0FCA3EFF0FD7F080219099C
:0D191600908098E0FCA3E0FD7F0802190915
:1017F2008D828C83AD07AC067F0D121909AE83AFC3
:0A18020082AD07AC067F0C02190945
:0400560075A401226A
:10180C00AEA3EE548FFEEF54704EA2AF92D5C2AF82
:06181C00F5A3A2D592AF76
:0118220022A3
:100B7400020C97E493A3F8E493A34003F68001F2F4
:100B840008DFF48029E493A3F85407240CC8C33382
:100B9400C4540F4420C8834004F456800146F6DF51
:100BA400E4800B010204081020408090185EE47E6B
:100BB400019360BCA3FF543F30E509541FFEE49346
:100BC400A360010ECF54C025E060A840B8E493A30D
:100BD400FAE493A3F8E493A3C8C582C8CAC583CA38
:100BE400F0A3C8C582C8CAC583CADFE9DEE780BEF0
:01186E000079
:10006600E709F608DFFA8046E709F208DFFA803E7C
:1000760088828C83E709F0A3DFFA8032E309F60869
:10008600DFFA8078E309F208DFFA807088828C83D1
:10009600E309F0A3DFFA806489828A83E0A3F60885
:1000A600DFFA805889828A83E0A3F208DFFA804C5F
:1000B60080D280FA80C680D4806980F28033801036
:1000C60080A680EA809A80A880DA80E280CA80339F
:1000D60089828A83ECFAE493A3C8C582C8CCC58317
:1000E600CCF0A3C8C582C8CCC583CCDFE9DEE780E7
:1000F6000D89828A83E493A3F608DFF9ECFAA9F066
:10010600EDFB2289828A83ECFAE0A3C8C582C8CCBB
:10011600C583CCF0A3C8C582C8CCC583CCDFEADED4
:10012600E880DB89828A83E493A3F208DFF980CC36
:1001360088F0EF60010E4E60C388F0ED2402B4042F
:100146000050B9F582EB2402B4040050AF232345D6
:0601560082239000B67345
:10015C00BB010689828A83E0225002E722BBFE02A1
:09016C00E32289828A83E49322D4
:10017500BB010CE58229F582E5833AF583E022503F
:1001850006E92582F8E622BBFE06E92582F8E22289
:0D019500E58229F582E5833AF583E49322A3
:1001A200BB010689828A83F0225002F722BBFE013C
:0201B200F32236
:1001B400BC000BBE0029EF8DF084FFADF022E4CC2F
:1001C400F875F008EF2FFFEE33FEEC33FCEE9DECF8
:1001D400984005FCEE9DFE0FD5F0E9E4CEFD22ED3E
:1001E400F8F5F0EE8420D21CFEADF075F008EF2F88
:1001F400FFED33FD4007985006D5F0F222C398FD79
:050204000FD5F0EA2215
:10020900C5F0F8A3E028F0C5F0F8E5821582700280
:060219001583E038F0221D
:10021F00BB010A89828A83F0E5F0A3F0225006F72A
:0F022F0009A7F01922BBFE06F3E5F009F3192227
:10023E00BB011A89828A83D0F0D0E0F8D0E0F9D0E1
:10024E00E0FAD0E0FBE8C0E0C0F00203355016E95A
:10025E00F8D083D082D0E0F9D0E0FAD0E0FBC082B3
:10026E00C083020323BBFE16E9F8D083D082D0E010
:0F027E00F9D0E0FAD0E0FBC082C0830203472230
:10028D00BB010DE58229F582E5833AF58302032C46
:10029D005007E92582F802031ABBFE07E92582F80B
:1002AD0002033EE58229F582E5833AF58302035088
:1002BD00D083D082F8E4937012740193700DA3A3D0
:1002CD0093F8740193F5828883E4737402936860E4
:0602DD00EFA3A3A380DFE4
:0602E3008A838982E473A6
:1002E900E5602582F582E55F3583F583B55F048591
:1002F90082602210AF06858260F55F22858260F5F3
:040309005FD2AF22EE
:0D030D00E5602582F582E55F3583F58322EA
:09031A00E6FB08E6FA08E6F92208
:09032300EBF608EAF608E9F622FF
:09032C00E0FBA3E0FAA3E0F922D2
:09033500EBF0A3EAF0A3E9F022C9
:09033E00E2FB08E2FA08E2F922F0
:09034700EBF208EAF208E9F222E7
:0C035000E493FB740193FA740293F92209
:00000001FF
