:0300000002046790
:0C046700787FE4F6D8FD75814E0204AEEB
:030BAD00014E00F6
:1005DA005394AE7FAA12004E7FAA12004EE4FDFF8A
:1005EA0012080F53BCEF75081ED2EA120AC5D2BA16
:1005FA00D2AFE509B401FBE50D64015401C43354DB
:0F060A00E0240EFF7D20120B869000377401F064
:1006190090000A7414F0D2E890000AE0FF14F0EF99
:0406290070F6C2E8BD
:0C062D00900037E070FA00E4F50980C38B
:030053000205762D
:10057600C0E0C0F0C083C082C0D075D000C001C04A
:0305860002C003AD
:10058900900010E4F0E5BEF0E5BFF0E0AB0AAA0B7D
:10059900A90C1207E77401250CF50CE4350BF50BD2
:1005A900D5081C75081E530D01630D01E50D75F085
:1005B90020A4240EF9E4F50AF50B890C750901004C
:1005C900D003D002D001D0D0D082D083D0F0D0E0F7
:0105D90032EF
:100AC500D2EAD2B97F0112098C7F011208FE7F019B
:0D0AD5001208CC7F01120B5EE4FF02095EE7
:03004B0002069515
:10069500C0E0C0F0C083C082C0D075D000C000C02B
:0D06A50001C002C003C004C005C006C007AC
:1006B200120BB9EF24F0601224F0600C24C0701207
:1006C200120BFCEF60FA80058003120C4290003797
:0206D200E4F052
:1006D400D007D006D005D004D003D002D001D0007A
:0B06E400D0D0D082D083D0F0D0E03224
:080BB00041002A004100290167
:1006EF00E4F5FCEF14600F1460111460131460151F
:1006FF0024047016801743FC10801243FC20800DD9
:10070F0043FC30800843FC40800343FC50ED1460F1
:10071F000A14600C14600E2403800D43FC02800841
:10072F0043FC04800343FC06EB700343FC0843FCCB
:02073F00012295
:0A0BE8008FFFE5FE30E2FBAFFF22B5
:10080F0075BC70D2CE43A601EF14600A14600C14AD
:10081F00600E2403800D43BC02800843BC04800398
:10082F0043BC06ED5401F433333354F842BC43BC9C
:0E083F0001E5BE30E00890000BE5BFF080F34D
:01084D002288
:070C700012004E120AFE22E1
:100A150090002AE045BEF0E0FF30E508900029741B
:100A250001F08009EF30E405E4900029F0EF54CFA0
:090A350090002AF0900029E0FF76
:010A3E002295
:100B3C0090002AE045BEF0E030E0037F01227F0008
:010B4C002286
:100AFE0090002AE020E00545BEF080F490002AE048
:060B0E0054FEF0AFBF220F
:03004E008FBF223F
:05095E0090000BEFF01A
:10096300E4FF120AE690000CEFF090000BE0B401F4
:1009730007A3E04401F0800790000CE054FEF090E0
:09098300000CE0FDE4FF020AA5EE
:05098C0090000BEFF0EC
:10099100E4FF120AE690000CEFF090000BE0B401C6
:1009A10007A3E04402F0800790000CE054FDF090B2
:0909B100000CE0FDE4FF020AA5C0
:0500030090002BEFF05E
:10000800E4FF120AE690002CEFF090002BE0146059
:100018001014601A2402702190002CE054F7F0802C
:100028001890002CE04408F0E054FBF0800B90009E
:100038002CE04408F0E04404F090002CE0FDE4FFDC
:03004800020AA504
:0804F300900023EFF0A3EDF0EF
:1004FB00E4FF120AE6900025EFF0900023E024FBC6
:10050B00602414603F24027058900024E060047F44
:10051B000080027F01EF5401C454F0FF900025E0EE
:10052B0054EF4FF0803B900024E060047F0080028A
:10053B007F01EF5401C43354E0FF900025E054DFFA
:10054B004FF0801D900024E060047F0080027F014B
:10055B00EF5401C4333354C0FF900025E054BF4F18
:0B056B00F0900025E0FDE4FF020AA56F
:0B0BB9007D707F07120AA5EF5470FF4B
:010BC400220E
:100A3F007D707F07120AA5EF5470900038F0E0FF29
:100A4F00C0077F07120AE6EF540FFED0E04EFF906B
:030A5F000038F06C
:010A62002271
:100B4D007401A807088002C333D8FCFD7F07020A91
:010B5D00A5F2
:080C6000120C4CEF5470FF224E
:0803D500900017EFF0A3EDF01A
:1003DD007F02120AE6900019EFF07F01120AE690F3
:1003ED00001AEFF0900017E0FF24FA500624076082
:1003FD003C80537401A807088002C333D8FCFD90DC
:10040D000019E04DF0900018E0600890001AE04DE2
:10041D00F08033900017E0FF7401A807088002C335
:10042D0033D8FCF4FF90001AE05FF08019900019AA
:10043D00743FF0900018E0600890001A743FF0804F
:10044D0005E490001AF0900019E0FD7F02120AA554
:0A045D0090001AE0FD7F01020AA5DD
:05063900900026EFF027
:10063E007F02120AE6900027EFF07F01120AE69081
:10064E000028EFF0900026E0FF24FA500624076001
:10065E001B80207401A807088002C333D8FCF4FD68
:10066E00900027E05DF0A3E05DF08007E4900027A6
:10067E00F0A3F0900027E0FD7F02120AA59000285B
:07068E00E0FD7F01020AA557
:1007410090001CEBF0A3EAF0A3E9F090001BEFF09E
:1007510014600A24FB501A60042406702B120BF259
:10076100AB0790001BE0242AFFA3A3A3E0FD020234
:100771003990001BE0240AFFA3E0FBA3E0FAA3E009
:09078100F91207CEFD120AA522AF
:10078A00900020EBF0A3EAF0A3E9F090001FEFF04D
:10079A0014600824FB60042406700D90001FE0FF1B
:1007AA00A3A3A3E0FD02005690001FE0240AFF1253
:1007BA000AE6900020E0FBA3E0FAA3E0F9EF1207B3
:0407CA00E77F0122A2
:020A6300AB07DF
:100A6500EC540FC454F0FF900039E0540F4FF0EBF5
:0F0A7500540FFFE054F04FF0E0FD7F04020AA59C
:100B1400EF24FE5403FF90003AE054FC4FF0E0FD54
:050B24007F03020AA599
:0A0BF2007F03120AE6EF2402FF223F
:070C7700EF2411FF020AA5A2
:05031600900012EFF061
:10031B007F02120AE6900013EFF07F01120AE690BB
:10032B000014EFF0900012E01460201460311460A0
:10033B00421460551460642405707A900013E054E5
:10034B0001900015F0900014E08062900013E0C360
:10035B00135401900015F0900014E0C313804E90DD
:10036B000013E013135401900015F0900014E013E8
:10037B0013803A900013E01313135401900015F0FF
:10038B00900014E01313138024900013E0C4540165
:10039B00900015F0900014E0C48012900013E0C49C
:1003AB00135401900015F0900014E0C41354019005
:1003BB000016F08007E4900015F0A3F0900016E013
:0903CB0025E0FF900015E02FFF72
:0103D4002206
:060C85007F08120AE622BE
:0D0B6C007F08120AE6EF54F0C4540FFF2278
:10084E00EF146014146015146016146017146018F9
:10085E00240570207F1180127F12800E7F13800A74
:10086E007F1480067F1580027F16120AE690003BE9
:0E087E00EFF08005E490003BF090003BE0FFBF
:01088C002249
:100B2900EF547FFF90003CE054804FF0E0FD7F05DB
:030B3900020AA508
:030A840090002DB2
:100A8700120AE290002EEFF090002DE0540325E0CB
:0E0A9700FFA3E054F94FF0E0FD7F06020AA530
:03088D0090002FA9
:10089000120AE2900030EFF090002FE0600C24FE8E
:1008A0007015900030E044208006900030E054DF66
:1008B000F0E054F7F0800B900030E054DFF0E044BB
:0C08C00008F0900030E0FD7F06020AA561
:0A0BFC007F17120AE6EF5401FF22F2
:0C0BC5007F17120AE6EFC3135401FF2251
:0B0BDD007F17120AE6EFC45401FF224C
:0C0BD1007F17120AE6EFC4135401FF2244
:0D0B79007F17120AE6EF5430C4540FFF221C
:0A0C06007F17120AE6EF5403FF22E5
:060C8B007F17120AE622A9
:0A0C10007F08120AE6EF540FFF22DE
:0A0C1A007F09120AE6EF5401FF22E1
:01005100228C
:0E0B5E00EF543F90000BF0E0FD7F1C020AA553
:0508CC0090000BEFF0AD
:1008D1007F1D120AE690000CEFF090000BE060041F
:1008E1007F0180027F00EF540125E025E0FF9000A9
:0D08F1000CE054FB4FF0E0FD7F1D020AA556
:0508FE0090000BEFF07B
:100903007F1D120AE690000CEFF090000BE06004EC
:100913007F0180027F00EF540125E0FF90000CE08F
:0B09230054FD4FF0E0FD7F1D020AA50F
:0509BA00900031EFF098
:1009BF007F1D120AE6900032EFF0900031E06004E4
:1009CF007F0180027F00EF5401FF900032E054FE60
:0909DF004FF0E0FD7F1D020AA5A6
:0D0B8600AE05AD07AF06AB077FA002023938
:0D0B9300AE05AD07AF06AB077FB00202391B
:070C7E00EF44A8FF02023958
:060C91007F60120AE6225A
:080C6800AD077F0812005622BF
:0A0C2400120C4CEF540EC313FF2214
:0A0C2E00C2E97FE3120C56D2E9225E
:0D0BA000120C8BEF5440C413135403FF22BA
:0A0C3800C2E97FE2120C56D2E92255
:0A0C4200C2E97FE1120C56D2E9224C
:090C4C00C2E97FFF120C56D2E947
:010C5500227C
:0309E80090003349
:1009EB00120AE2900034EFF0900033E060047F01D4
:1009FB0080027F00EF5401C454F0FF900034E054A8
:0A0A0B00EF4FF0E0FD7F06020AA5A0
:03092E0090003501
:10093100120AE2900036EFF0900035E060047F018A
:1009410080027F00EF5401C43333335480FF9000A1
:0D09510036E0547F4FF0E0FD7F06020AA55E
:040AE200EFF07F06AC
:100AE600C2E98FE7E5E630E1FBAFE7E4F5E7E5E6E7
:070AF60030E1FBAFE7D2E99C
:010AFD0022D6
:100AA500C2E9EF2420F5E7E5E630E1FBAFE7AE0567
:0F0AB5008EE7E5E630E1FB900011E5E7F0D2E9CE
:010AC400220F
:0A005600900001EDF0900000EFF0C3
:100060009000067401F0900001E0900004F0EF149D
:10007000600C24FB600824FE601924087035120B04
:10008000F2900002EFF0A3F0C2E9900000E0240A31
:10009000FF801B120C24900000EFF0C39407501354
:1000A000120C91900002EFF0A3F0C2E97F61120CF4
:1000B000568009E4900003F0900002F0900004E004
:0300C000FF704985
:1000C300900001E0900007F0E4F5E7900006E0708F
:1000D30011900005E0FE900007E0F8A606E004F0AA
:1000E3008005E4900006F0E5E630E1FB900005E5CD
:1000F300E7F0900002E014F070CE900005E0FE906F
:060103000007E0F8A6066B
:0801090002022AEF6401706597
:10011100900001E0FF900007E4F0A3EFF0E4F5E7C1
:10012100900006E07022900005E0FF900007E0FCDF
:10013100A3E0F5828C83EFF0900008E004F0700DED
:10014100900007E004F08005E4900006F0E5E63059
:10015100E1FB900005E5E7F0900002E014F070BDCE
:10016100900005E0FF900007E0FCA3E0F5828C839E
:02017100EFF0AD
:0B01730002022A900004E064FE7048C5
:10017E00900001E0900007F0E4F5E7900006E070D3
:10018E0011900005E0FF900007E0F8EFF2E004F0B8
:10019E008005E4900006F0E5E630E1FB900005E511
:1001AE00E7F0900002E014F070CE900005E0FF90B2
:0601BE000007E0F8EFF27B
:0201C400806455
:1001C600900001E0F9900007E4F0A3F0A3E9F0E461
:1001D600F5E7900006E07020900005E0FF9000072C
:1001E600E0FBA3E0FAA3E0F9EF1207E7900008E4CA
:1001F60075F0011207F98005E4900006F0E5E63097
:10020600E1FB900005E5E7F0900002E014F070BF16
:10021600900005E0FF900007E0FBA3E0FAA3E0F9F9
:04022600EF1207E7E5
:0E022A00D2E9900000E0FE900003E0FDEDFF41
:0102380022A3
:0702390090000BEDF0AD0396
:09024000E0FCC2E98FE7EC70213B
:10024900E090000DF090000DE0F8E6FEE004F0E526
:0E025900E630E1FB90000CE5E7F08EE7DDE714
:08026700020308EC6401703A87
:10026F0090000BE0FFFB90000DE4F0A3EBF090008B
:10027F000DE0FEA3E0F5828E83E0FE90000EE00419
:10028F00F0700690000DE004F0E5E630E1FB900021
:08029F000CE5E7F08EE7DDD667
:0702A700805FEC64FE702390
:1002AE0090000BE090000DF090000DE0F8E2FEE003
:1002BE0004F0E5E630E1FB90000CE5E7F08EE7DDBB
:0102CE00E748
:0202CF00803776
:1002D10090000BE0F990000DE4F0A3F0A3E9F09099
:1002E100000DE0FBA3E0FAA3E0F91207CEFE9000B7
:1002F1000EE475F0011207F9E5E630E1FB90000C20
:07030100E5E7F08EE7DDD80F
:0D030800E5E630E1FB90000CE5E7F0D2E9FE
:0103150022C5
:0A0C56008FE7E5E630E1FBAFE7228F
:100473000205DAE493A3F8E493A34003F68001F2C0
:1004830008DFF48029E493A3F85407240CC8C3338A
:10049300C4540F4420C8834004F456800146F6DF59
:1004A300E4800B0102040810204080900BADE47E31
:1004B300019360BCA3FF543F30E509541FFEE4934E
:1004C300A360010ECF54C025E060A840B8E493A315
:1004D300FAE493A3F8E493A3C8C582C8CAC583CA40
:1004E300F0A3C8C582C8CAC583CADFE9DEE780BEF8
:010BB800003C
:1007CE00BB010689828A83E0225002E722BBFE0229
:0907DE00E32289828A83E493225C
:1007E700BB010689828A83F0225002F722BBFE01F1
:0207F700F322EB
:1007F900C5F0F8A3E028F0C5F0F8E582158270028B
:060809001583E038F02227
:00000001FF
