:10006600E4F594FF1200407F011200EEE4FF120057
:10007600B47F011200D2E4FF1200507F011200C3C8
:0E0086007F011200E0D2BCD2AF12010680FE54
:0300630002000395
:10000300C0E0C0F0C083C082C0D075D000C000C0C3
:1000130001C002C003C004C005C006C007120060CF
:100023008F90D007D006D005D004D003D002D001E2
:0D003300D000D0D0D082D083D0F0D0E03209
:10004000EF25E025E0543CFFE5D354C34FF5D32220
:0C00EE00EF5403FFE5D354FC4FF5D32280
:0F00B400EFC4333354C0FFE5D2543F4FF5D2228F
:0E00D200EFC4335420FFE5D254DF4FF5D222A5
:10005000EF25E025E0541CFFE5D254E34FF5D22212
:10009400EF25E025E0541CFFE5D254E34FF5D222CE
:0C00FA00EF5403FFE5D254FC4FF5D22276
:0F00C300EFC4333354C0FFE5D1543F4FF5D12282
:0E00E000EFC4335420FFE5D154DF4FF5D12299
:0B0106007F0143D380AE071FEE70FAAC
:0101110022CB
:03006000AFD522F7
:03012900AFD4222E
:1000A400E5D35440D3940040047F0180027F0022B2
:0B011E00E5D15418131313541FFF22E7
:03000000020112E8
:0C011200787FE4F6D8FD758107020066D6
:00000001FF
