:03000000020056A5
:0C005600787FE4F6D8FD75810A02009D59
:06021D00010A00010900C6
:100180007593EE75BC40D2CEC28075A60175BFAA2C
:1001900075BFAAD2BA43BC01D2AF7F01120000E5FD
:0E01A0000870FC7B007A0079617D011200007E
:1001AE009000047414F0D2E8900004E0FF14F0EF15
:0401BE0070F6C2E82D
:0501C20075080180D862
:0300530002022D79
:0E022D00D28085BF0975BFCC000000C28032B0
:03004B000201347B
:10013400C0E0C0F0C083C082C0D075D000C000C091
:0D01440001C002C003C004C005C006C00712
:10015100120000EF24F0600624F070088003120002
:04016100007508001D
:10016500D007D006D005D004D003D002D001D000EE
:0B017500D0D0D082D083D0F0D0E03298
:0A023B008FE7E5E630E1FBAFE722B4
:090223004100020042000000014C
:1000E200E4F5FCEF14600F14601114601314601532
:1000F20024047016801743FC10801243FC20800DEC
:1001020043FC30800843FC40800343FC50ED146004
:100112000A14600C14600E2403800D43FC02800854
:1001220043FC04800343FC06EB700343FC0843FCDE
:020132000122A8
:0A0245008FFFE5FE30E2FBAFFF2261
:1000030075BCF0D2CE43A601E4F5BCEF14600A142C
:10001300600C14600E2403800D43BC02800843BCB3
:1000230004800343BC06ED5401F433333354F842E4
:10003300BC75BFAA75BFAA43BC01E5BE30E00890FA
:070043000003E5BFF080F3AC
:01004A002293
:07024F0012004E1201F6221D
:1001C700900002E045BEF0E0FF30E50A900000E451
:1001D700F0A304F0800BEF30E407E4900000F0A3F5
:0E01E700F0EF54CF900002F0900000A3E0FF74
:0101F50022E7
:10020C00900002E045BEF0E030E0037F01227F0069
:01021C0022BF
:1001F600900002E020E00545BEF080F4900002E0A9
:0602060054FEF0AFBF2220
:03004E008FBF223F
:10006200020180E493A3F8E493A34003F68001F233
:1000720008DFF48029E493A3F85407240CC8C3339F
:10008200C4540F4420C8834004F456800146F6DF6E
:10009200E4800B010204081020408090021DE47EDF
:1000A200019360BCA3FF543F30E509541FFEE49363
:1000B200A360010ECF54C025E060A840B8E493A32A
:1000C200FAE493A3F8E493A3C8C582C8CAC583CA55
:1000D200F0A3C8C582C8CAC583CADFE9DEE780BE0D
:01022C0000D1
:00000001FF
